:020000021000EC
:10B000000040002025C7020065C7020067C7020094
:10B010000000000000000000000000000000000030
:10B0200000000000000000000000000069C70200EE
:10B0300000000000000000006BC702006DC70200A6
:10B040006FC702006FC70200218C0200E17302008B
:10B050006FC70200000000006FC70200893E0200B7
:10B060006FC702006FC70200AD7C02006FC702000D
:10B070006FC702006FC702006FC702006FC70200F0
:10B080006FC7020019AC02006FC702006FC7020051
:10B090006FC7020069AC020059C202006FC702000C
:10B0A0006FC702006FC70200000000000000000030
:10B0B0000000000000000000000000000000000090
:10B0C00010B5064C2378002B07D1054B002B02D07E
:10B0D000044800E000BF0123237010BDF8240020C5
:10B0E000000000009CE80200084B10B5002B03D0C4
:10B0F0000749084800E000BF07480368002B00D15B
:10B1000010BD064B002BFBD09847F9E7000000006C
:10B11000FC2400209CE80200F42400200000000031
:10B12000164B002B00D1144B9D46402292029A1AD6
:10B13000924600218B460F461348144A121A00F01B
:10B140005FF80F4B002B00D098470E4B002B00D020
:10B1500098470020002104000D000D48002802D06F
:10B160000C4800F01DF900F027F82000290012F02B
:10B1700083FF00F011F8C0460000080000400020E6
:10B180000000000000000000F82400204C300020E7
:10B19000A1B30100B1B3010010B50021040000F01B
:10B1A00081F8044B1868C36B002B00D0984720002F
:10B1B00000F082F948E6020070B50D4E0D4D0024F6
:10B1C000AD1BAD1005D0A300F35801349847A5423C
:10B1D000F9D113F02BFA084E084D0024AD1BAD1029
:10B1E00005D0A300F35801349847A542F9D170BDAA
:10B1F000E8240020E8240020E8240020F024002097
:10B2000070B583073FD0541E002A3BD0CEB2030056
:10B21000032503E0621E002C34D0140001335A1EB3
:10B2200016702B42F6D1032C24D9FF250D402A029B
:10B2300015432A0415430F2C11D92600103E360958
:10B24000013636011A009B19156055609560D5606E
:10B2500010329342F8D10F221440032C0AD9261F32
:10B26000B6080136B6001A009B1920C29342FCD1E1
:10B2700003221440002C05D0C9B21C1919700133E7
:10B280009C42FBD170BD14000300CCE7034B10B50A
:10B29000002B02D0024800F083F810BD000000002F
:10B2A000B1B30100F0B55F4656464D464446F0B492
:10B2B0000F00394B85B01B68019002934933FF336F
:10B2C0000393A422029B52009E58002E4ED0039B53
:10B2D0009946C4235B00984604339A467468B04488
:10B2E000A5007519B244013C08D52DE06B1DFF3354
:10B2F0001B689F4204D0043D013C25D3002FF5D1AB
:10B3000073686A68013BA34239D000236B60002A4E
:10B31000F1D0736841469B460123A3400968194256
:10B320002BD05146096819422BD12B008433196860
:10B330000198904773685B45C3D14B461B68B34285
:10B34000BFD1043D013CD9D2144B002B0ED0736801
:10B35000002B1BD13368002B1CD04A4630001360F1
:10B3600000E000BF4B461E68002EB2D105B03CBCC9
:10B3700090469946A246AB46F0BD9047DAE7746026
:10B38000C5E72B00843318689047D3E73368B1468C
:10B390001E00E9E70023FAE748E60200000000008B
:10B3A00010B5010000230022002000F01BF810BDA2
:10B3B00070B5094B094CE41AA41009D0084AA51825
:10B3C000AD00ED182B68013C9847043D002CF9D1E5
:10B3D00013F032F970BDC046F0240020F4240020A0
:10B3E000FFFFFF3FF8B544465F4656464D469B4635
:10B3F0002F4BF0B41C68A4235B000500E0580E003E
:10B40000904600284BD043681F2B0DDC5C1C002DA0
:10B4100021D102339B0044601E5000203CBC90466A
:10B420009946A246AB46F8BD224B002B3CD0C82023
:10B43000400000E000BF002836D0A42200235200C4
:10B44000A15843600160A0504032835004328350C1
:10B450000124002DDDD09A00914681444246882186
:10B460004F467A50C4225200904680444246873963
:10B47000994012688A460A439446424661461160E2
:10B48000842249465F4652008F50022DC1D10200EE
:10B4900055468D32FF3211680D431560B9E7200023
:10B4A0004D30FF30E050AEE701204042B6E7C046E5
:10B4B00048E6020000000000FEE7C04670DF70476B
:10B4C000C046180071DF7047C046180072DF704731
:10B4D000C046180073DF7047C046180074DF70471D
:10B4E000C046180075DF7047C046180076DF704709
:10B4F000C046180077DF7047C046180078DF7047F5
:10B50000C046180079DF7047C04618007ADF7047E0
:10B51000C04618007BDF7047C04618007CDF7047CC
:10B52000C04618007DDF7047C04618007EDF7047B8
:10B53000C04618007FDF7047C046180080DF7047A4
:10B54000C046180081DF7047C046180082DF704790
:10B55000C046180083DF7047C046180084DF70477C
:10B56000C046180085DF7047C046180086DF704768
:10B57000C046180087DF7047C046180088DF704754
:10B58000C046180089DF7047C04618008EDF70473C
:10B59000C04618008ADF7047C04618008BDF70472E
:10B5A000C04618008CDF7047C04618008DDF70471A
:10B5B000C0461800B0DF7047C0461800B1DF7047C2
:10B5C000C0461800B2DF7047C046180090DF7047D1
:10B5D000C046180091DF7047C046180092DF7047E0
:10B5E000C046180093DF7047C046180095DF7047CB
:10B5F000C046180096DF7047C046180097DF7047B6
:10B60000C046180098DF7047C046180099DF7047A1
:10B61000C046180094DF7047C0461800A0DF70478E
:10B62000C0461800A1DF7047C0461800A2DF70476F
:10B63000C0461800A3DF7047C0461800A4DF70475B
:10B64000C0461800A5DF7047C0461800A6DF704747
:10B65000C0461800A7DF7047C0461800A8DF704733
:10B66000C0461800A9DF7047C0461800AADF70471F
:10B67000C0461800ABDF7047C0461800ACDF70470B
:10B68000C046180060DF7047C046180061DF704791
:10B69000C046180062DF7047C046180063DF70477D
:10B6A000C046180064DF7047C046180065DF704769
:10B6B000C046180066DF7047C046180067DF704755
:10B6C000C046180068DF7047C046180069DF704741
:10B6D000C04618002BDF7047C04618002CDF7047AB
:10B6E000C04618002DDF7047C046180038DF70478D
:10B6F000C046180039DF7047C04618003ADF70476F
:10B70000C04618003DDF7047C04618003EDF704756
:10B71000C04618003BDF7047C04618003CDF70474A
:10B72000C04618003FDF7047C046180040DF704732
:10B73000C046180041DF7047C046180042DF70471E
:10B74000C046180043DF7047C046180044DF70470A
:10B75000C046180045DF7047C046180046DF7047F6
:10B76000C046180047DF7047C046180049DF7047E1
:10B77000C04618004ADF7047C04618004BDF7047CC
:10B78000C046180048DF7047C046180020DF7047E9
:10B79000C046180021DF7047C046180022DF7047FE
:10B7A000C046180023DF7047C046180024DF7047EA
:10B7B000C046180025DF7047C046180026DF7047D6
:10B7C000C046180027DF7047C04618004CDF70479E
:10B7D000C04618004DDF7047C04618004EDF704766
:10B7E000C046180052DF7047C046180053DF70474C
:10B7F000C046180029DF7047C046180028DF704790
:10B80000C04618002ADF7047C04618004FDF704757
:10B81000C046180050DF7047C046180051DF70471F
:10B82000C046180080B582B000AF78607B681B7995
:10B83000002B03D17B681B7B002B01D0012300E090
:10B8400000231800BD4602B080BDC04680B500AFE1
:10B85000044B072200211800FFF7D2FCC046BD466A
:10B8600080BDC0461825002080B584B000AF786048
:10B870000023FB600AE07A68FB68D3181B78002B72
:10B8800001D0012306E0FB680133FB60FB68052B58
:10B89000F1D900231800BD4604B080BD90B589B031
:10B8A00000AFF860B9607A603B60FB68002B01D1A3
:10B8B0000E23D2E07B68002B01D10E23CDE0694B33
:10B8C00000221A70684B3A681A60684B3A6B1A602B
:10B8D000674B7A6813CA13C313CA13C313CA13C3BB
:10B8E000FFF7B4FF634B644A1A60624B634A9A6085
:10B8F000634B382200211800FFF782FCFB681A789E
:10B900005F4B1A70FB689A785D4B9A70FB68DA7827
:10B910005B4BDA70FB685A78594B5A70584BFA688F
:10B920001033103203CA03C3554BFA680833083288
:10B9300003CA03C3524BFA681833183203CA03C34D
:10B94000FB685B6A002B29D04D4B4E4A5A624D4B27
:10B950004D4A9A604A4B5A6AFB685B6A1B8813809F
:10B96000474B5A6AFB685B6A9B8893800023FB61A4
:10B970000DE0FB685B6A9A68FB69D3181978424A44
:10B98000FB69D3180A1C1A70FB690133FB613C4B3D
:10B990005B6A9B881A00FB699A42EAD8FB689B6A3B
:10B9A000002B33D0394B3A4A9A60354B374A9A626A
:10B9B000334B9B6A364A9A60314B9A6AFB689B6AA2
:10B9C0009B8893802E4B9A6AFB689B6A1B88138026
:10B9D0000023BB610DE0FB689B6A9A68BB69D318C2
:10B9E00019782B4ABB69D3180A1C1A70BB6901333A
:10B9F000BB61234B9B6A9B881A00BB699A42EAD8B9
:10BA0000FB682C22995C1E4B2C229954FB681B6A04
:10BA1000002B0ED01A4B1F4A1A62194B1A6AFB6888
:10BA20001B6A5B885380164B1A6AFB681B6A1B886B
:10BA30001380FB685B68002B06D0114B164A5A60D6
:10BA4000FB685A680E4B5A60BA680D4B110018001B
:10BA500004F0C6FA03007B617B691800BD4609B09B
:10BA600090BDC046642500205C2500206025002094
:10BA7000682500208C2500209C250020BC25002066
:10BA800020250020E0250020EC2500200C260020A9
:10BA900018260020382600203C26002080B582B0E1
:10BAA00000AF00233B603B0018000AF0CFFF03000B
:10BAB0007B607B68082B04D07B68002B01D00123BE
:10BAC00013E07B68082B0AD13B0018000DF010FE34
:10BAD00003007B607B68002B01D0002305E03B68FE
:10BAE000002B01D0012300E000231800BD4602B066
:10BAF00080BDC04680B58AB000AF0200FB1D1A7041
:10BB0000C04BFA1D12781A70FFF7C8FF031E04D04D
:10BB1000BD4B01221A70002397E1FFF797FEBB4B44
:10BB20005B78002B03D0B74B1B78012B0FD0B74BA2
:10BB30009B78002B03D0B34B1B78012B07D0B34B62
:10BB40009B78002B12D0AF4B1B78022B0ED1B04B41
:10BB50001B68002B07D0AF4B01221A70AC4B1B683F
:10BB60000820984702E0AB4B00221A70A54B1B78C7
:10BB7000012B14D1A54B5B7801225340DBB2002B83
:10BB80000AD1A54B1800FFF76FFE03001A0001232E
:10BB90005340DBB2002B02D09A4B02221A70994B11
:10BBA0001B78022B14D1994B9B7801225340DBB2B6
:10BBB000002B0AD1984B1800FFF756FE03001A001D
:10BBC00001235340DBB2002B02D08E4B03221A70AC
:10BBD0008E4B1B7B01225340DBB2002B06D0894BDE
:10BBE0001B78032B02D1874B04221A70874B1B7ED4
:10BBF00001225340DBB2002B09D0824B1B78042B6F
:10BC000005D1804B00221A70844B00221A70804BA1
:10BC10001B68002B1AD07B4B1B78032B03D0794B6E
:10BC20001B78042B12D1794B1B78002B0ED07C4B48
:10BC30001B7801225340DBB2002B07D0794B012245
:10BC40001A70734B1B680720984702E0754B00225F
:10BC50001A700C23FB18182200211800FFF7D0FAE5
:10BC60000C23FB1800221A700C23FB1800225A60C8
:10BC70000C23FB1800221A720C23FB180022DA6036
:10BC8000604B1B78022B1CD002DC012B05D0A8E0F6
:10BC9000032B2ED0042B68D0A3E00C23FB18624AA0
:10BCA0005A600C23FB1801221A700C23FB18002287
:10BCB0005A820C23FB1800221A82584B01221A7058
:10BCC0008FE00C23FB18584A5A600C23FB18012202
:10BCD0001A704E4B9B689AB20C23FB185A824B4B3E
:10BCE0005B689AB20C23FB181A824C4B02221A7022
:10BCF00077E0464B5B699AB20C23FB185A82434BA0
:10BD00001B699AB20C23FB181A82484B1800FFF7E4
:10BD100089FD031E25D03D4B1B78002B21D0404BC5
:10BD20001B7801225340DBB2002B1AD00C23FB18E6
:10BD300002221A720C23FB183C4ADA603C4B0422A4
:10BD4000DA703B4B0021180004F04AF903007B62D3
:10BD50007B6A002B01D07B6A77E0304B05221A709A
:10BD60003FE02E4B03221A703BE0284BDB699AB26E
:10BD70000C23FB181A82254B1B6A9AB20C23FB1862
:10BD80005A822A4B1800FFF74DFD031E25D01F4B8A
:10BD90001B78002B21D0224B1B7801225340DBB2B1
:10BDA000002B1AD00C23FB1802221A720C23FB184A
:10BDB0001E4ADA601E4B0422DA701D4B0021180067
:10BDC00004F00EF903007B627B6A002B01D07B6AD2
:10BDD0003BE0124B06221A7002E0104B04221A704C
:10BDE000C046084B1B78002B24D00C23FB181800EE
:10BDF000FFF770FB03007B627B6A002B1AD07B6A23
:10BE000023E0C0466425002014250020682500207A
:10BE10005C250020DE250020192500205825002063
:10BE2000DC250020DD250020182500208C250020A1
:10BE300020250020074B1B68002B05D0054B1B68F5
:10BE4000054A12781000984700231800BD460AB032
:10BE500080BDC0465C2500205825002080B586B0F6
:10BE600000AF78607B681B88112B0ED01B2B2AD06B
:10BE7000102B00D08DE07B689B7D012B00D083E0F0
:10BE80007B689A88454B1A807EE0454B00221A70E9
:10BE90007B689A88414B1B889A4200D076E001204B
:10BEA000FFF728FE03007B617B69002B00D16DE06A
:10BEB0003C4B1B68002B00D168E03A4B1B687A6949
:10BEC0001000984762E07B681B7A002B00D05FE08F
:10BED000354B1B78022B1AD002DC012B05D052E027
:10BEE000032B26D0042B39D04DE00220FFF702FEB1
:10BEF00003003B613B69002B3ED02A4B1B68002BA3
:10BF00003AD0284B1B683A691000984734E0032068
:10BF1000FFF7F0FD0300FB60FB68002B2ED0214BE8
:10BF20001B68002B2AD01F4B1B68FA68100098472B
:10BF300024E01E4B03221A700420FFF7DBFD0300F0
:10BF4000BB60BB68002B1BD0164B1B68002B17D0A7
:10BF5000144B1B68BA681000984711E0134B00227D
:10BF60001A70134B1B68002B0CD0114B1B680F4A27
:10BF700012781000984705E0C04609E0C04607E087
:10BF8000C04605E0C04603E0C04602E0C04600E00F
:10BF9000C046C046BD4606B080BDC046B4240020A1
:10BFA000DC25002060250020642500205825002085
:10BFB0005C25002080B584B000AF78600023FB6072
:10BFC0007B68023B012B1AD8104B1B78002B18D032
:10BFD0000E4B00221A700E4B1B781800FFF78AFDDB
:10BFE0000300FB60FB68002B0BD00A4B1B68002B87
:10BFF00007D0084B1B68FA681000984701E0C0465C
:10C0000000E0C046C046BD4604B080BD14250020F7
:10C01000642500206025002080B584B000AF7860E2
:10C02000144B1B7801225340DBB2002B01D00823B4
:10C030001BE07B681A78104B1A700023FB600DE040
:10C040007A68FB68D318013319780B4AFB68D31858
:10C0500001330A1C1A70FB680133FB60FB68052B77
:10C06000EEDD044B00221A7000231800BD4604B018
:10C0700080BDC046DE2500201825002080B584B094
:10C0800000AF7860224B1B7801225340DBB2002BBB
:10C0900001D0082337E07B681A791E4B1A717B6840
:10C0A0001A7B1C4B1A730023FB600CE07B689A68B8
:10C0B000FB689B00D3181968174BFA689200D1509F
:10C0C000FB680133FB60134B1B7B1A00FB689A4231
:10C0D000ECD80023FB600CE07B681A68FB689B00CF
:10C0E000D31819680D4BFA689200D150FB680133E0
:10C0F000FB60084B1B791A00FB689A42ECD8044B92
:10C1000000221A7000231800BD4604B080BDC0464E
:10C11000DD2500208C250020BC2500209C2500204A
:10C1200080B582B000AF214B1B78002B38D0204B5C
:10C130001B7801225340DBB2002B31D01D4B1B7802
:10C14000002B08D0FFF7CAF903007B607B68002B47
:10C1500001D07B6825E0164B01221A70164B06228F
:10C16000DA70154B0021180003F03AFF03007B60E2
:10C170007B68002B01D07B6813E00E4B1B78180006
:10C18000FFF7B8FC03007B607B68002B08D00B4BEB
:10C190001B68002B04D0094B1B687A681000984775
:10C1A00000231800BD4602B080BDC04668250020AF
:10C1B000DC250020642500202025002060250020AB
:10C1C00070DF7047C046180071DF7047C046180026
:10C1D00072DF7047C046180073DF7047C046180012
:10C1E00074DF7047C046180075DF7047C0461800FE
:10C1F00076DF7047C046180077DF7047C0461800EA
:10C2000078DF7047C046180079DF7047C0461800D5
:10C210007ADF7047C04618007BDF7047C0461800C1
:10C220007CDF7047C04618007DDF7047C0461800AD
:10C230007EDF7047C04618007FDF7047C046180099
:10C2400080DF7047C046180081DF7047C046180085
:10C2500082DF7047C046180083DF7047C046180071
:10C2600084DF7047C046180085DF7047C04618005D
:10C2700086DF7047C046180087DF7047C046180049
:10C2800088DF7047C046180089DF7047C046180035
:10C290008EDF7047C04618008ADF7047C04618001E
:10C2A0008BDF7047C04618008CDF7047C04618000F
:10C2B0008DDF7047C0461800B0DF7047C0461800D9
:10C2C000B1DF7047C0461800B2DF7047C0461800A3
:10C2D00090DF7047C046180091DF7047C0461800D5
:10C2E00092DF7047C046180093DF7047C0461800C1
:10C2F00095DF7047C046180096DF7047C0461800AB
:10C3000097DF7047C046180098DF7047C046180096
:10C3100099DF7047C046180094DF7047C046180088
:10C32000A0DF7047C0461800A1DF7047C046180064
:10C33000A2DF7047C0461800A3DF7047C046180050
:10C34000A4DF7047C0461800A5DF7047C04618003C
:10C35000A6DF7047C0461800A7DF7047C046180028
:10C36000A8DF7047C0461800A9DF7047C046180014
:10C37000AADF7047C0461800ABDF7047C046180000
:10C38000ACDF7047C046180060DF7047C046180039
:10C3900061DF7047C046180062DF7047C046180072
:10C3A00063DF7047C046180064DF7047C04618005E
:10C3B00065DF7047C046180066DF7047C04618004A
:10C3C00067DF7047C046180068DF7047C046180036
:10C3D00069DF7047C046180080B582B000AF786052
:10C3E0007B681B781AB27B6801331B781B021BB277
:10C3F00013431BB29BB21800BD4602B080BDC046BD
:10C4000090B585B000AF78600E23FC187B681800EB
:10C41000FFF7E2FF030023800E23FB181B88012295
:10C4200013405A1E9341DBB21800BD4605B090BDC3
:10C4300080B582B000AF786039603B689A887B68CD
:10C440005A82C046BD4602B080BDC04680B582B0AB
:10C4500000AF786039607B68012252425A82C04640
:10C46000BD4602B080BDC04680B584B000AF7860E4
:10C4700039607B681B7D002B27D03B680633FB604F
:10C48000FB681A887B685B899A421ED1FB685B89CE
:10C49000022B1AD17B681B68002B16D0FB680C336B
:10C4A0001800FFF7ADFF031E04D00823FB1800227D
:10C4B0001A7003E00823FB1801221A707B681B68BE
:10C4C0000822B9187A6810009847C046BD4604B0E3
:10C4D00080BDC04680B582B000AF786039607B68AF
:10C4E000002B20D03B68002B1DD03B681B88112BF4
:10C4F0000BD0502B10D0102B00D015E03A687B6881
:10C5000011001800FFF794FF0EE03A687B681100F5
:10C510001800FFF79BFF07E03A687B6811001800DE
:10C52000FFF7A2FF00E0C046BD4602B080BDC04696
:10C5300090B595B000AF786039607B681B7D002BAB
:10C5400026D02823FB18032200211800FEF758FEEE
:10C550002823FB181A780F218A43111C01220A4351
:10C560001A702823FB181A780F210A40111C102278
:10C570000A431A702823FB183A68527B5A70282302
:10C58000FB189A7806218A43111C02220A439A70EA
:10C590002C23FB181C2200211800FEF731FE2C234F
:10C5A000FB181A7802210A431A707B681B7D1A1C3B
:10C5B00001231340DAB22C23FB1801210A40100199
:10C5C0001A7810218A43111C021C0A431A702C236A
:10C5D000FB1800225A602C23FB180022DA602C235F
:10C5E000FB1800221A617B681B7D002B02D02823D8
:10C5F000FA1800E000222C23FB185A612C23FB18A8
:10C6000000229A611023FB1801229A701023FB1854
:10C61000784A1A800C23FB18032200211800FEF729
:10C62000EFFD0C23FB183A68927B1A700C23FB1861
:10C630003A68D27B5A700C23FB189A7806218A43F9
:10C64000111C02220A439A700C23FB189A780821C5
:10C650008A439A700C23FB189A7810218A439A70A7
:10C660000C23FB189A7801218A439A703B681A7B45
:10C670000B23FB181A701423FB1814220021180036
:10C68000FEF7BEFD1423FB181022BA181A601423FB
:10C69000FB180C22BA185A601423FB1801221A81C5
:10C6A0001423FB1800225A811423FB1801229A81BB
:10C6B0001423FB180B22BA181A617B6898887B68D0
:10C6C00006331422BA182C217918FFF731FE030023
:10C6D000FB64FB6C002B01D0FB6C87E03B689B6824
:10C6E000002B00D17EE01023FB1801229A7010234A
:10C6F000FB18414A1A800C23FB1803220021180062
:10C70000FEF77EFD0C23FB183A68127C1A700C238E
:10C71000FB185A780F218A435A700C23FB185A7859
:10C720000F210A405A700C23FB189A7806218A437D
:10C73000111C02220A439A700C23FB189A780821D4
:10C740008A439A700C23FB189A7810218A439A70B6
:10C750000C23FB189A7801218A439A703B689A68E7
:10C760004B23FC180823FB181100180004F02EF9C5
:10C77000030023701423FB18142200211800FEF775
:10C780003FFD1423FB181022BA181A601423FB185B
:10C790000C22BA185A604B23FB181B789AB2142348
:10C7A000FB181A811423FB1800225A811423FB184A
:10C7B0001A891423FB189A811423FB180822BA182B
:10C7C0001A617B68D8887B680E331A001423FB1823
:10C7D0001900FFF7B1FD0300FB64FB6C002B04D0D4
:10C7E000FB6C03E07B680022DA8100231800BD4661
:10C7F00015B090BD192A00000829000080B584B04A
:10C8000000AF786039607B68002B02D03B68002B5A
:10C8100001D10E232CE03B681A687B681A607B68A4
:10C82000012252425A823B681A797B681A757B68EA
:10C83000FF221A740823FB1801229A700823FB18A0
:10C840000D4A1A807B681A1D0823FB181900012065
:10C85000FFF766FD0300FB60FB68002B01D0FB685F
:10C8600006E03A687B6811001800FFF761FE0300DC
:10C870001800BD4604B080BD0F18000080B58AB016
:10C8800000AF78600A00FB1C1A707B68002B01D196
:10C890000E2367E000237B627B681A7CFB1C1B78FD
:10C8A0009A425ED01C23FB18082200211800FEF7D4
:10C8B000A7FC1C23FB1801221A801C23FB18002252
:10C8C0005A801C23FB18FA1C5A607B68588A7B68C4
:10C8D000DB881C22BA181900FFF732FD03007B62C7
:10C8E0007B6A002B09D1FB1C1A787B681A747B6861
:10C8F0005B8A1E4A934232D001E07B6A32E07B6859
:10C900001B7D002B2BD00C23FB18102200211800BC
:10C91000FEF776FC7B68DA880C23FB181A800C2360
:10C92000FB1801229A701C23FB185A880C23FB1851
:10C930009A800C23FB181C22BA189A601C23FB183F
:10C940005A680C23FB18DA607B685B8A0C22BA18E1
:10C9500011001800FFF7FCFC03007B6201E00823D4
:10C960007B627B6A1800BD460AB080BDFFFF0000F5
:10C9700080B582B000AF02003960BB1D1A80BB1DBC
:10C980001B88DAB23B681A703B680133BA1D128803
:10C99000120A92B2D2B21A7002231800BD4602B037
:10C9A00080BDC04670DF7047C046180071DF704719
:10C9B000C046180072DF7047C046180073DF70472A
:10C9C000C046180074DF7047C046180075DF704716
:10C9D000C046180076DF7047C046180077DF704702
:10C9E000C046180078DF7047C046180079DF7047EE
:10C9F000C04618007ADF7047C04618007BDF7047DA
:10CA0000C04618007CDF7047C04618007DDF7047C5
:10CA1000C04618007EDF7047C04618007FDF7047B1
:10CA2000C046180080DF7047C046180081DF70479D
:10CA3000C046180082DF7047C046180083DF704789
:10CA4000C046180084DF7047C046180085DF704775
:10CA5000C046180086DF7047C046180087DF704761
:10CA6000C046180088DF7047C046180089DF70474D
:10CA7000C04618008EDF7047C04618008ADF704736
:10CA8000C04618008BDF7047C04618008CDF704727
:10CA9000C04618008DDF7047C0461800B0DF7047F1
:10CAA000C0461800B1DF7047C0461800B2DF7047BB
:10CAB000C046180090DF7047C046180091DF7047ED
:10CAC000C046180092DF7047C046180093DF7047D9
:10CAD000C046180095DF7047C046180096DF7047C3
:10CAE000C046180097DF7047C046180098DF7047AF
:10CAF000C046180099DF7047C046180094DF7047A1
:10CB0000C0461800A0DF7047C0461800A1DF70477C
:10CB1000C0461800A2DF7047C0461800A3DF704768
:10CB2000C0461800A4DF7047C0461800A5DF704754
:10CB3000C0461800A6DF7047C0461800A7DF704740
:10CB4000C0461800A8DF7047C0461800A9DF70472C
:10CB5000C0461800AADF7047C0461800ABDF704718
:10CB6000C0461800ACDF7047C046180060DF704751
:10CB7000C046180061DF7047C046180062DF70478A
:10CB8000C046180063DF7047C046180064DF704776
:10CB9000C046180065DF7047C046180066DF704762
:10CBA000C046180067DF7047C046180068DF70474E
:10CBB000C046180069DF7047C0461800F0B58BB05A
:10CBC00000AFF861B961BB695A1E9341DBB27B6269
:10CBD0007B6A002B02D100200EF010FDFB695A1E6B
:10CBE0009341DBB23B623B6A002B02D100200EF086
:10CBF00005FDBB695C681B68DAB2FB691A70FB69EA
:10CC00005A1CBB695C681B682106180A38613869C0
:10CC100008433861230A7B613B7C1370FB699A1CD3
:10CC2000BB695C681B682104180CB860B8680843CD
:10CC3000B860230CFB603B7A1370FB69DA1CBB699C
:10CC40005C681B6821021D0E0D43260EEBB21370AB
:10CC5000FB691A1DBB695C681B6823003B600023ED
:10CC60007B603B781370FB695A1DBB699B68DBB224
:10CC70001370FB699A1DBB699B681B0ADBB21370BA
:10CC8000FB69DA1DBB699B681B0CDBB21370C046E5
:10CC9000BD460BB0F0BDC04680B586B000AF786031
:10CCA00039601723FB1800221A703B685A1E934103
:10CCB000DBB23B613B69002B02D100200EF09EFCF1
:10CCC0007B685A1E9341DBB2FB60FB68002B02D1EC
:10CCD00000200EF093FC1723FB181B781722BA18BC
:10CCE000591C11701A007B689B183A6812781A70E8
:10CCF0003B6858881723FB181B787A68D3181900EB
:10CD0000FFF736FE030019001723FB181722BA1885
:10CD100012788A181A703B6898881723FB181B78BA
:10CD20007A68D3181900FFF723FE030019001723B0
:10CD3000FB181722BA1812788A181A703B68D8881C
:10CD40001723FB181B787A68D3181900FFF710FE19
:10CD5000030019001723FB181722BA1812788A1833
:10CD60001A701723FB181B78073B5A425341DBB25A
:10CD7000BB60BB68002B02D100200EF03FFCC04618
:10CD8000BD4606B080BDC04680B594B000AFB96066
:10CD900011007B600E23FB18021C1A800C23FB1869
:10CDA0000A1C1A80BB685A1E9341DBB2FB64FB6C01
:10CDB000002B02D100200EF021FC0C23FB181B8855
:10CDC0005A1E9341DBB2BB64BB6C002B02D1002026
:10CDD0000EF014FC2823FB181C2200211800FEF77B
:10CDE0000FFA2823FB181A7802210A431A70282305
:10CDF000FB1800225A602823FB180022DA6028233F
:10CE0000FB1800221A612823FB1800225A612823EC
:10CE1000FB1800229A614423FB1801229A704423D4
:10CE2000FB180E22BA1812881A801023FB1803224E
:10CE300000211800FEF7E4F91023FB187A68127835
:10CE40001A701023FB187A6852785A701023FB1856
:10CE50009A7806218A43111C02220A439A701023F1
:10CE6000FB189A7808218A439A701023FB189A7845
:10CE700010218A439A701023FB189A7801218A4363
:10CE80009A701423FB18142200211800FEF7B8F939
:10CE90001423FB184422BA181A601423FB1810221A
:10CEA000BA185A601423FB180C22BA1812881A8177
:10CEB0001423FB1800225A811423FB180C22BA18E1
:10CEC00012889A811423FB18BA681A61064B1888D5
:10CED000BB6D1422BA1828217918FFF71BFE030036
:10CEE0001800BD4614B080BD3E26002090B58BB022
:10CEF00002AF78601823FB1801229A701823FB18E0
:10CF0000824A1A80824A1823FB1819000120FFF771
:10CF1000F9FD0300FB61FB69002B01D0FB69F0E028
:10CF20007B681B88002B14D07B6859687B681A8843
:10CF30007B683C331800774C774B0093030020004C
:10CF4000FFF722FF0300FB61FB69002B01D0FB69A7
:10CF5000D7E07B681B89002B14D07B68D9687B687D
:10CF60001A897B683C3318006C4C6D4B00930300AE
:10CF70002000FFF709FF0300FB61FB69002B01D0D4
:10CF8000FB69BEE07B681B8A002B14D07B68596963
:10CF90007B681A8A7B683C331800624C624B0093B2
:10CFA00003002000FFF7F0FE0300FB61FB69002B8C
:10CFB00001D0FB69A5E07B681B8B002B14D07B683C
:10CFC000D9697B681A8B7B683C331800574C584BE7
:10CFD000009303002000FFF7D7FE0300FB61FB690D
:10CFE000002B01D0FB698CE07B681B8C002B14D0DC
:10CFF0007B68596A7B681A8C7B683C3318004D4CFF
:10D000004D4B009303002000FFF7BEFE0300FB61C1
:10D01000FB69002B01D0FB6973E07B681B8D002B43
:10D0200014D07B68D96A7B681A8D7B683C33180002
:10D03000424C434B009303002000FFF7A5FE030082
:10D04000FB61FB69002B01D0FB695AE07B681B6B1D
:10D05000002B1AD07B681A6B1023FB1811001800E4
:10D06000FFF7ACFD7B683C331A001023F9183548F4
:10D07000354B009313000822FFF786FE0300FB6187
:10D08000FB69002B01D0FB693BE07B685B6B002BED
:10D0900017D07B685B6B19687B685B6B1B799AB2F6
:10D0A0007B683C331800294C294B00930300200077
:10D0B000FFF76AFE0300FB61FB69002B01D0FB69EF
:10D0C0001FE07B689B6B002B1AD07B689A6B082350
:10D0D000FB1811001800FFF7DFFD7B683C331A00D6
:10D0E0000823F9181B481C4B009313000722FFF775
:10D0F0004BFE0300FB61FB69002B01D0FB6900E0E4
:10D1000000231800BD4609B090BDC0460A180000B3
:10D110003E260020292A000040260020242A000064
:10D1200048260020252A000050260020272A00003B
:10D1300058260020262A000060260020282A000009
:10D1400068260020232A0000702600202A2A0000DA
:10D1500078260020502A00008026002070DF7047CB
:10D16000C046180071DF7047C046180072DF704774
:10D17000C046180073DF7047C046180074DF704760
:10D18000C046180075DF7047C046180076DF70474C
:10D19000C046180077DF7047C046180078DF704738
:10D1A000C046180079DF7047C04618007ADF704724
:10D1B000C04618007BDF7047C04618007CDF704710
:10D1C000C04618007DDF7047C04618007EDF7047FC
:10D1D000C04618007FDF7047C046180080DF7047E8
:10D1E000C046180081DF7047C046180082DF7047D4
:10D1F000C046180083DF7047C046180084DF7047C0
:10D20000C046180085DF7047C046180086DF7047AB
:10D21000C046180087DF7047C046180088DF704797
:10D22000C046180089DF7047C04618008EDF70477F
:10D23000C04618008ADF7047C04618008BDF704771
:10D24000C04618008CDF7047C04618008DDF70475D
:10D25000C0461800B0DF7047C0461800B1DF704705
:10D26000C0461800B2DF7047C046180090DF704714
:10D27000C046180091DF7047C046180092DF704723
:10D28000C046180093DF7047C046180095DF70470E
:10D29000C046180096DF7047C046180097DF7047F9
:10D2A000C046180098DF7047C046180099DF7047E5
:10D2B000C046180094DF7047C0461800A0DF7047D2
:10D2C000C0461800A1DF7047C0461800A2DF7047B3
:10D2D000C0461800A3DF7047C0461800A4DF70479F
:10D2E000C0461800A5DF7047C0461800A6DF70478B
:10D2F000C0461800A7DF7047C0461800A8DF704777
:10D30000C0461800A9DF7047C0461800AADF704762
:10D31000C0461800ABDF7047C0461800ACDF70474E
:10D32000C046180060DF7047C046180061DF7047D4
:10D33000C046180062DF7047C046180063DF7047C0
:10D34000C046180064DF7047C046180065DF7047AC
:10D35000C046180066DF7047C046180067DF704798
:10D36000C046180068DF7047C046180069DF704784
:10D37000C046180080B582B000AF02003960BB1D06
:10D380001A80BB1D1B88DAB23B681A703B680133F8
:10D39000BA1D1288120A92B2D2B21A700223180071
:10D3A000BD4602B080BDC04680B582B000AF786097
:10D3B0007B681B781AB27B6801331B781B021BB297
:10D3C00013431BB29BB21800BD4602B080BDC046DD
:10D3D00090B585B000AF78600E23FC187B6818000C
:10D3E000FFF7E2FF030023800E23FB181B880122B6
:10D3F00013405A1E9341DBB21800BD4605B090BDE4
:10D4000090B585B000AF040008001100BB1D221CC0
:10D410001A807B1D021C1A703B1D0A1C1A700823FF
:10D42000FB1800221A600823FB18BA1D12881A8004
:10D430000823FB187A1D12789A700823FB183A1DEE
:10D440001278DA700C23FB180822BA1812681A60D6
:10D450000C23FA18002311880904090C1B0C1B0467
:10D460000B43528812041B041B0C13431800BD46C7
:10D4700005B090BD80B586B000AF786039603B687C
:10D4800099887A68BB235B00D1527B685B89002B4B
:10D4900030D01323FB1801221A700823FB1808222E
:10D4A00000211800FDF7ACFE0823FB1801221A80AA
:10D4B0000823FB1800225A800823FB181322BA18ED
:10D4C0005A607A68BB235B00D05A7B685B8908226C
:10D4D000BA181900FFF702FF03007B617B69002B7C
:10D4E00008D07B685B68002B04D07B685B687A6936
:10D4F00010009847C046BD4606B080BD80B582B0DA
:10D5000000AF786039607A68BB235B000121494233
:10D51000D152C046BD4602B080BDC04680B588B07D
:10D5200000AF786039603B685B89012B1BD17B6859
:10D530001B68002B17D03B681B7B002B02D0012BF4
:10D5400005D010E00C23FB1800221A7004E00C2315
:10D55000FB1801221A70C0467B681B680C22B918A0
:10D560007A6810009847BD4608B080BD80B588B085
:10D5700000AF786039603B685B89012B1BD17B6809
:10D580001B68002B17D03B681B7B002B02D0012BA4
:10D5900005D010E00C23FB1805221A7004E00C23C0
:10D5A000FB1806221A70C0467B681B680C22B9184B
:10D5B0007A6810009847BD4608B080BD80B58AB033
:10D5C00000AFF860B9607A607B685B89022B23D179
:10D5D000FB681B68002B1FD07B680C331800FFF71B
:10D5E000F7FE031E04D01423FB1802221A7003E076
:10D5F0001423FB1803221A701423FB18BA6804338F
:10D6000011000422180011F000F8FB681B681422B6
:10D61000B918FA6810009847C046BD460AB080BDE8
:10D6200080B58AB000AFF860B9607A60FB681B68AB
:10D63000002B23D01423FB1804221A701423FB1888
:10D640007A68043311000422180010F0DEFFBB6872
:10D65000DA891423FB181A81BB681A8A1423FB1871
:10D660005A81BB6812331A001423FB18DA60FB6876
:10D670001B681422B918FA6810009847C046BD46C6
:10D680000AB080BD80B58AB000AFF860B9607A603A
:10D69000FB681B68002B17D01423FB1807221A7095
:10D6A0001423FB18BA68043311000422180010F088
:10D6B000ACFF1423FB187A681A61FB681B681422FC
:10D6C000B918FA6810009847C046BD460AB080BD38
:10D6D00080B586B000AFF8607A600A23FB180A1C98
:10D6E0001A801723FB1800221A7027E01723FB1853
:10D6F0001A78F96813009B009B185B00CB1818334D
:10D700001B880A22BA1812889A4210D11723FB18D4
:10D710001B7810481A000121FFF772FE03001A005F
:10D720007B68111C1980120C5A8001230EE017230C
:10D73000FB181A781723FB1801321A70FB689B7CC0
:10D740001722BA1812789A42D0D300231800BD4687
:10D7500006B080BD4D2A000080B586B000AFF860ED
:10D760007A600A23FB180A1C1A801723FB18002270
:10D770001A7027E01723FB181A78F96813009B002A
:10D780009B185B00CB1814331B880A22BA18128826
:10D790009A4210D11723FB181B7846481A00012122
:10D7A000FFF72EFE03001A007B68111C1980120C73
:10D7B0005A8001237AE01723FB181A781723FB18E5
:10D7C00001321A70FB689B7C1722BA1812789A42B1
:10D7D000D0D31723FB1800221A7028E01723FB1858
:10D7E0001A78F9687A2013009B009B185B00CB180D
:10D7F0001B181B880A22BA1812889A4210D11723C4
:10D80000FB181B782B481A000221FFF7F9FD0300D3
:10D810001A007B68111C1980120C5A80012345E004
:10D820001723FB181A781723FB1801321A70FB68AC
:10D8300078229B5C1722BA1812789A42CED317230B
:10D84000FB1800221A7028E01723FB181A78F968D1
:10D85000E02013009B009B185B00CB181B181B8853
:10D860000A22BA1812889A4210D11723FB181B7883
:10D8700010481A000321FFF7C3FD03001A007B685C
:10D88000111C1980120C5A8001230FE01723FB187A
:10D890001A781723FB1801321A70FB68DE229B5C92
:10D8A0001722BA1812789A42CED300231800BD4628
:10D8B00006B080BD4D2A000080B584B000AF78600E
:10D8C00039603B680633FB60FB681A887968B723C8
:10D8D0005B00CB5A9A4206D1FA687B6811001800A7
:10D8E000FFF71CFE9BE0FB681A887B685B899A4205
:10D8F00006D1FA687B6811001800FFF737FE8EE04A
:10D90000FB681A887968A9235B00CB5A9A4212D126
:10D91000454B002200211800FFF772FD03001A009A
:10D920000823FB181A60FA680823F9187B681800A6
:10D93000FFF744FE73E0FB681A887968A7235B0051
:10D94000CB5A9A4212D1384B002200211800FFF71F
:10D9500057FD03001A000823FB181A600823FA1861
:10D9600039687B681800FFF75BFE58E0FB681A888F
:10D970007968B1235B00CB5A9A4212D12B4B00221B
:10D9800000211800FFF73CFD03001A000823FB18D4
:10D990001A60FA680823F9187B681800FFF70EFE72
:10D9A0003DE0FB681A887968AF235B00CB5A9A4246
:10D9B00012D11E4B002200211800FFF721FD0300A9
:10D9C0001A000823FB181A600823FA1839687B68C4
:10D9D0001800FFF725FE22E0FB6819880823FA18D3
:10D9E0007B681800FFF774FE031E07D0FA6808234F
:10D9F000F9187B681800FFF7E1FD10E0FB68198853
:10DA00000823FA187B681800FFF7A6FE031E06D04D
:10DA10000823FA1839687B681800FFF701FEC04632
:10DA2000BD4604B080BDC046222A0000332A000053
:10DA300080B584B000AF786039603B680633FB6026
:10DA4000FB681B78012B11D1FB6859880823FA1851
:10DA50007B681800FFF780FE031E08D03A68082391
:10DA6000F9187B681800FFF70DFE00E0C046BD46C0
:10DA700004B080BD80B582B000AF786039603B688B
:10DA80001B88112B0FD002DC102B05D020E0502B6F
:10DA900010D0512B15D01BE03A687B68110018009C
:10DAA000FFF7E8FC14E03A687B6811001800FFF704
:10DAB00025FD0DE03A687B6811001800FFF7FCFEB9
:10DAC00006E03A687B6811001800FFF7B1FFC04616
:10DAD000C046BD4602B080BD80B592B000AF786050
:10DAE00039602C23FB181C2200211800FDF788FB4D
:10DAF0002C23FB181A7802210A431A702C23FB18D6
:10DB00001A7804210A431A702C23FB1800225A6049
:10DB10002C23FB180022DA602C23FB1800221A6148
:10DB20002C23FB1800225A612C23FB1800229A6137
:10DB30001423FB1801229A701423FB18314A1A800F
:10DB40001023FB18032200211800FDF759FB1023B6
:10DB5000FB183A6812781A701023FB183A6852784A
:10DB60005A701023FB189A7806218A43111C02224E
:10DB70000A439A701023FB189A7808218A439A70F6
:10DB80001023FB189A7810218A439A701023FB18EF
:10DB90009A7801218A439A701823FB1814220021D5
:10DBA0001800FDF72DFB0F23FB1801221A70182314
:10DBB000FB181422BA181A601823FB181022BA187E
:10DBC0005A601823FB1801221A811823FB1800221F
:10DBD0005A811823FB1801229A811823FB180F225F
:10DBE000BA181A617B6818897B680A331822BA1838
:10DBF0002C217918FFF76AFB03001800BD4612B00C
:10DC000080BDC0464E2A000080B596B000AFF860D7
:10DC1000B9603B60BB1D1A80BB681B7810221340A3
:10DC2000DBB2002B26D03423FB180322002118007E
:10DC3000FDF7E6FA3423FB181A780F218A43111CEA
:10DC400001220A431A703423FB181A780F210A4064
:10DC5000111C10220A431A703423FB183A6E1278F2
:10DC60005A703423FB189A7806218A43111C022229
:10DC70000A439A703823FB181C2200211800FDF774
:10DC8000BFFA3823FB18BA6812781A703823FB18C9
:10DC900000225A603823FB180022DA603823FB1870
:10DCA00000221A61BB681B7810221340DBB2002BE4
:10DCB00002D03423FA1800E000223823FB185A61FE
:10DCC0003823FB1800229A611C23FB1801229A704A
:10DCD0001C23FB186D4A1A801823FB18032200210D
:10DCE0001800FDF78DFA1823FB183A6E52781A7057
:10DCF0001823FB183A6E92785A701823FB189A78FA
:10DD000006218A43111C02220A439A706423FB18DD
:10DD10001B781A1C01231340DAB21823FB180121C7
:10DD20000A40D0009A7808218A43111C021C0A4339
:10DD30009A701823FB189A7810218A439A70182336
:10DD4000FB189A7801210A439A702023FB181422A9
:10DD500000211800FDF754FA2023FB181C22BA18E2
:10DD60001A602023FB181822BA185A602023FB18C7
:10DD700000221A812023FB1800225A812023FB183D
:10DD8000BA1D12889A812023FB1800221A61FB68B1
:10DD90001889BB6E2022BA1838217918FFF796FA35
:10DDA00003007B657B6D002B01D07B6D6AE01C233B
:10DDB000FB1801229A701C23FB18354A1A8018237D
:10DDC000FB18032200211800FDF71AFA1823FB188C
:10DDD0003A6E52781A701823FB183A6E92785A707D
:10DDE0001823FB189A7806218A43111C02220A4341
:10DDF0009A701823FB189A7808218A439A7018237E
:10DE0000FB189A7810218A439A701823FB189A7885
:10DE100001218A439A702023FB1814220021180044
:10DE2000FDF7EEF92023FB181C22BA181A602023F4
:10DE3000FB181822BA185A603A681423FB1811000C
:10DE4000180002F0C3FD03009AB22023FB181A81C8
:10DE50002023FB1800225A812023FB181A89202333
:10DE6000FB189A812023FB181422BA181A61BB6E82
:10DE70001888BB6E08331A002023FB181900FFF71F
:10DE800029FA03001800BD4616B080BD4D2A0000D7
:10DE90000829000080B598B000AF786039603C2355
:10DEA000FB181C2200211800FDF7AAF93C23FB18DF
:10DEB0001A7802210A431A703C23FB1800225A6088
:10DEC0003C23FB180022DA603C23FB1800221A6175
:10DED0003C23FB1800225A613C23FB1800229A6164
:10DEE0002423FB1801229A702423FB188C4A1A80E1
:10DEF0002023FB18032200211800FDF781F92023BD
:10DF0000FB183A682C21525C1A702023FB183A68DF
:10DF10002D21525C5A702023FB189A7806218A43DF
:10DF2000111C02220A439A702023FB189A780821B8
:10DF30008A439A702023FB189A7810218A439A709A
:10DF40002023FB189A7801210A439A702823FB1892
:10DF5000142200211800FDF753F92823FB1824226E
:10DF6000BA181A602823FB182022BA185A603B6896
:10DF70009A8C2823FB181A812823FB1800225A8127
:10DF80003B689A8C2823FB189A813B681A6A2823DD
:10DF9000FB181A617B6818897B684533FF33282298
:10DFA000BA183C217918FFF791F90300BB65BB6DE6
:10DFB000002B01D0BB6DAFE03B6826229B5C002BA1
:10DFC00005D03B689B6A002B01D10723A4E0002306
:10DFD000FB6598E02423FB1801229A702423FB1888
:10DFE000504A1A802023FB18032200211800FDF755
:10DFF00007F92023FB181A780F218A43111C0122EC
:10E000000A431A702023FB181A780F210A40111CAA
:10E0100020220A431A702023FB185A780F218A43C2
:10E020005A702023FB185A780F210A405A70202377
:10E03000FB189A7806218A43111C02220A439A701F
:10E040002023FB189A7808218A439A702023FB1812
:10E050009A7810218A439A702023FB189A7801211C
:10E060008A439A703B689A6AFB6D9B00D318102212
:10E07000BA180F2179181800FFF768F90300BB657B
:10E08000BB6D002B01D0BB6D46E02823FB1814228A
:10E0900000211800FDF7B4F82823FB182422BA1831
:10E0A0001A602823FB182022BA185A600F23FB1885
:10E0B0001B789AB22823FB181A812823FB18002208
:10E0C0005A812823FB181A892823FB189A812823B0
:10E0D000FB181022BA181A617A68A2235B00D05A82
:10E0E0007B684D33FF331A002823FB181900FFF714
:10E0F000F1F80300BB65BB6D002B01D0BB6D0BE0DD
:10E10000FB6D0133FB653B6826229B5C1A00FB6DAF
:10E110009A4200DD5EE700231800BD4618B080BDBE
:10E120004B2A00000729000080B594B000AFF860CA
:10E13000080011007B600A23FB18021C1A800823C8
:10E14000FB180A1C1A803023FB1803220021180038
:10E15000FDF756F83023FB181A780F218A43111C5B
:10E1600001220A431A703023FB181A780F210A4043
:10E17000111C10220A431A703023FB187A68127897
:10E180005A703023FB189A7806218A43111C022208
:10E190000A439A703423FB181C2200211800FDF753
:10E1A0002FF83423FB181A7802210A431A707B686F
:10E1B0009B780F221340DBB25A1E9341DAB234230C
:10E1C000FB1801210A40D0001A7808218A43111C4B
:10E1D000021C0A431A703423FB181A7810210A43D0
:10E1E0001A703423FB1800225A603423FB180022D3
:10E1F000DA603423FB1800221A613423FB18302222
:10E20000BA185A613423FB1800229A611823FB18AC
:10E2100001229A701823FB180A22BA1812881A8051
:10E220001423FB18032200211800FCF7E9FF142334
:10E23000FB187A6852781A701423FB187A6892785F
:10E240005A701423FB189A7806218A43111C022263
:10E250000A439A701423FB189A7808218A439A700B
:10E260001423FB189A7810218A439A701423FB1800
:10E270009A7801218A439A701C23FB1814220021EA
:10E280001800FCF7BDFF1C23FB181822BA181A60EF
:10E290001C23FB181422BA185A601C23FB180022F6
:10E2A0001A811C23FB1800225A811C23FB18082208
:10E2B000BA1812889A811C23FB1800221A61FB6885
:10E2C0001889BB6D1C22BA1834217918FEF7FEFF9D
:10E2D00003001800BD4614B080BDC04680B590B0A4
:10E2E00000AF786039602423FB181C22002118003D
:10E2F000FCF786FF2423FB181A7802210A431A70C0
:10E300002423FB181A7808210A431A702423FB18C7
:10E310001A7804210A431A702423FB1800225A6039
:10E320002423FB180022DA602423FB1800221A6140
:10E330002423FB1800225A612423FB1800229A612F
:10E340000C23FB1801229A700C23FB18304A1A8008
:10E350000823FB18032200211800FCF751FF0823B3
:10E36000FB183A684621525C1A700823FB183A6879
:10E370004721525C5A700823FB189A7806218A4379
:10E38000111C02220A439A700823FB189A7808216C
:10E390008A439A700823FB189A7810218A439A704E
:10E3A0000823FB189A7801218A439A701023FB18DE
:10E3B000142200211800FCF723FF1023FB180C2265
:10E3C000BA181A601023FB180822BA185A601023D2
:10E3D000FB1800221A811023FB1800225A811023F7
:10E3E000FB1801229A811023FB1800221A617B6816
:10E3F00018897B685733FF331022BA182421791803
:10E40000FEF764FF03001800BD4610B080BDC04693
:10E41000322A000090B585B000AF786039603B6863
:10E420001B880F22BC187A6811001800FEF7A2FFA3
:10E43000030023700F23FB181B780F22BA18591CF6
:10E4400011701A007B689B183A6892781A700F2333
:10E45000FB181B780F22BA18591C11701A007B6820
:10E460009B183A68D2781A700F23FB181B78043B6C
:10E470005A425341DBB2BB60BB68002B02D1002083
:10E480000DF0BCF80F23FB181B781800BD4605B033
:10E4900090BDC04690B593B000AF78603960282336
:10E4A000FB181C2200211800FCF7AAFE2823FB18E9
:10E4B0001A7802210A431A702823FB1800225A6096
:10E4C0002823FB180022DA602823FB1800221A6197
:10E4D0002823FB1800225A612823FB1800229A6186
:10E4E0001023FB1801229A701023FB18394A1A8056
:10E4F0000C23FB18032200211800FCF781FE0C23DB
:10E50000FB183A683421525C1A700C23FB183A68E5
:10E510003521525C5A700C23FB189A7806218A43E5
:10E52000111C02220A439A700C23FB189A780821C6
:10E530008A439A700C23FB189A7810218A439A70A8
:10E540000C23FB189A7801218A439A703B68303378
:10E550001A004723FC180823FB1811001800FFF7C6
:10E5600059FF030023701423FB1814220021180004
:10E57000FCF746FE1423FB181022BA181A60142365
:10E58000FB180C22BA185A604723FB181B789AB262
:10E590001423FB181A811423FB1800225A81142318
:10E5A000FB181A891423FB189A811423FB180822DC
:10E5B000BA181A617B6818897B686733FF331422A5
:10E5C000BA1828217918FEF781FE03001800BD460D
:10E5D00013B090BD4A2A000080B592B000AF7860B9
:10E5E00039602C23FB181C2200211800FCF708FEC0
:10E5F0002C23FB181A7804210A431A702C23FB18C9
:10E6000000225A602C23FB180022DA602C23FB180E
:10E6100000221A612C23FB1800225A612C23FB18BC
:10E6200000229A611423FB1801229A701423FB180C
:10E63000314A1A801023FB18032200211800FCF72E
:10E64000DFFD1023FB183A6812781A701023FB18AC
:10E650003A6852785A701023FB189A7806218A4338
:10E66000111C02220A439A701023FB189A78082181
:10E670008A439A701023FB189A7810218A439A7063
:10E680001023FB189A7801218A439A700F23FB18F4
:10E6900000221A701823FB18142200211800FCF71E
:10E6A000AFFD1823FB181422BA181A601823FB18A0
:10E6B0001022BA185A601823FB1801221A81182355
:10E6C000FB1800225A811823FB1801229A81182373
:10E6D000FB180F22BA181A617B6818897B686F33A0
:10E6E000FF331822BA182C217918FEF7EFFD03002A
:10E6F0001800BD4612B080BD4C2A0000F0B58BB0AA
:10E7000004AF786039603B689B7A002B72D03B681D
:10E71000DB68002B6ED01723FB1800221A7062E012
:10E720003B68DA681723FB181B78DB00D3183B61C2
:10E730000823FB18012200211800FCF761FD0823C3
:10E74000FB181A7802210A431A703B699B790F2241
:10E750001340DBB25A1E9341DAB20823FB180121A1
:10E760000A40D0001A7808218A43111C021C0A436F
:10E770001A700823FB181A7810210A431A703B6993
:10E780001E883B6902339C463B69191D3B69DB7956
:10E79000DB07DB0FDBB25A1E9341D8B21723FB18FD
:10E7A0001A7813009B009B185B0010337A68D3180B
:10E7B00004330822BD187C680293019000916346DF
:10E7C000320029002000FFF71FFA0300FB60FB68FE
:10E7D000002B01D0FB680EE01723FB181A781723D3
:10E7E000FB1801321A703B689B7A1722BA1812780C
:10E7F0009A4295D300231800BD4607B0F0BDC0462D
:10E80000F0B58BB004AF786039603B681B7C002B9F
:10E8100064D03B685B69002B60D01723FB18002293
:10E820001A7054E03B685A691723FB181B78DB0009
:10E83000D3183B610823FB18012200211800FCF7C4
:10E84000DFFC0823FB181A7802210A431A700823F8
:10E85000FB181A7808210A431A700823FB181A7843
:10E8600004210A431A703B691E883B6902339C46A7
:10E870003B69191D3B69DB79DB07DB0FDBB25A1EF5
:10E880009341D8B21723FB181A7813009B009B18EA
:10E890005B0078337A68D31802330822BD187C688D
:10E8A0000293019000916346320029002000FFF797
:10E8B000ABF90300FB60FB68002B01D0FB680EE0A6
:10E8C0001723FB181A781723FB1801321A703B68BC
:10E8D0001B7C1722BA1812789A42A3D3002318007F
:10E8E000BD4607B0F0BDC046F0B58BB004AF786050
:10E8F00039603B681B7E002B5DD03B68DB69002BD9
:10E9000059D01723FB1800221A704DE03B68DA69D2
:10E910001723FB181B78DB00D3183B610823FB1877
:10E92000012200211800FCF76BFC0823FB181A7861
:10E9300002210A431A700823FB181A7808210A4397
:10E940001A703B691E883B6902339C463B69191D5E
:10E950003B69DB79DB07DB0FDBB25A1E9341D8B290
:10E960001723FB181A7813009B009B185B00E033F9
:10E970007A68D3180822BD187C6802930190009130
:10E980006346320029002000FFF73EF90300FB60D8
:10E99000FB68002B01D0FB680EE01723FB181A78E8
:10E9A0001723FB1801321A703B681B7E1722BA1816
:10E9B00012789A42AAD300231800BD4607B0F0BDD2
:10E9C00080B586B000AF786039601723FB1800224D
:10E9D0001A701CE07B6818893B689A6B1723FB1838
:10E9E0001B785B00D3181B880E22BA181900FEF79B
:10E9F00069FC03003B613B69002B01D03B690FE0E0
:10EA00001723FB181A781723FB1801321A703B687A
:10EA100036229B5C1722BA1812789A42DAD3002366
:10EA20001800BD4606B080BD80B586B002AF7860E4
:10EA300039603B689B7A0A2B07D83B681B7C0A2B02
:10EA400003D83B681B7E0A2B01D90723E5E03B680E
:10EA50001A687B681A603B685A687B685A603B6832
:10EA60009A7A7B689A743B68197C7B6878229954FF
:10EA70003B68197E7B68DE2299547A68BB235B0071
:10EA800001214942D1520823FB1801229A70082320
:10EA9000FB18644A1A807B6808331A000823FB18A5
:10EAA00019000120FEF70AFC0300FB60FB68002B45
:10EAB00001D0FB68B1E03A687B6811001800FFF7ED
:10EAC0007FFF0300FB60FB68002B01D0FB68A4E024
:10EAD0003B681B7A002B03D13B685B7A002B0ED07E
:10EAE0003B683C331A007B6811001800FEF7F4FF06
:10EAF0000300FB60FB68002B01D0FB688DE03A68E7
:10EB00007B6811001800FFF7F9FD0300FB60FB684C
:10EB1000002B01D0FB6880E03A687B681100180088
:10EB2000FFF76EFE0300FB60FB68002B01D0FB6863
:10EB300073E03A687B6811001800FFF7D5FE030008
:10EB4000FB60FB68002B01D0FB6866E03A687B68DD
:10EB500011001800FFF79EF90300FB60FB68002B13
:10EB600001D0FB6859E03B681B7A002B20D03B6842
:10EB700043331A007B684F33FF332B497868009387
:10EB800013000822FFF7D0FA0300FB60FB68002B9C
:10EB900001D0FB6841E03A687B6811001800FFF77C
:10EBA0009DFB0300FB60FB68002B01D0FB6834E099
:10EBB0003B685B7A002B13D03B6840331A007B68BC
:10EBC0005F33FF3319497868009313000822FFF779
:10EBD000ABFA0300FB60FB68002B01D0FB681CE074
:10EBE0003A687B6811001800FFF754FC0300FB60D3
:10EBF000FB68002B01D0FB680FE03B683E331A0036
:10EC00007B6811001800FFF7E7FC0300FB60FB685E
:10EC1000002B01D0FB6800E000231800BD4604B0C3
:10EC200080BDC04612180000222A0000332A0000CE
:10EC300080B58CB000AFF860080011007B600B233A
:10EC4000FB18021C1A700823FB180A1C1A80FB68A8
:10EC50009B7C0B22BA1812789A4252D20B23FB18D3
:10EC60001A7813009B009B185B001033FA68D318C6
:10EC70000433BB62FA68BB235B00D35A244A934235
:10EC80003CD01623FB180822BA1812881A801823C1
:10EC9000FB18102200211800FCF7B2FABB6A1A8890
:10ECA0001823FB181A801823FB1801229A701823C6
:10ECB000FB1800229A801823FB181622BA189A60B3
:10ECC0001823FB187A68DA60FA68BB235B00D35A12
:10ECD0001822BA1811001800FEF708FB0300FB62A7
:10ECE000FB6A002B0FD11623FB181B880822BA18C9
:10ECF00012889A4207D00C23FB6204E00823FB62CF
:10ED000001E00723FB62FB6A1800BD460CB080BD22
:10ED1000FFFF000080B58AB000AFF8607A600A2378
:10ED2000FB180A1C1A80FA68BB235B00D35A244ADA
:10ED300093423ED01223FB180A22BA1812881A8076
:10ED40001423FB18102200211800FCF759FAFA6866
:10ED5000A7235B00D25A1423FB181A801423FB1834
:10ED600001229A701423FB1800229A801423FB18A6
:10ED70001222BA189A601423FB187A68DA60FA68CB
:10ED8000BB235B00D35A1422BA1811001800FEF7F7
:10ED9000ADFA03007B627B6A002B0CD11223FB18B7
:10EDA0001B880A22BA1812889A4204D00C237B626C
:10EDB00001E008237B627B6A1800BD460AB080BD73
:10EDC000FFFF000090B58DB000AF78600C00100020
:10EDD0001900FB1C221C1A70BB1C021C1A707B1C25
:10EDE0000A1C1A707A68BB235B00D35A3E4A9342CE
:10EDF00000D171E04023FB181B8803339AB226230D
:10EE0000FB181A802623FB181B88082B61D80123C6
:10EE1000BB62BB6A002B02D100200CF0EFFB1C236D
:10EE2000FB18FA1C12781A70BB1C1A781C23FB18EA
:10EE30005A707B1C1A781C23FB189A704023FB180D
:10EE40001B88002B09D04023FB181A88796C1C23DF
:10EE5000FB18033318000FF0D8FB0C23FB1810220B
:10EE600000211800FCF7CCF97A68AF235B00D25A76
:10EE70000C23FB181A800C23FB1801229A700C2318
:10EE8000FB1800229A800C23FB182622BA189A60DD
:10EE90000C23FB181C22BA18DA607A68BB235B00CB
:10EEA000D35A0C22BA1811001800FEF71FFA0300FB
:10EEB000FB62FB6A002B11D12623FB181B881A006A
:10EEC0004023FB181B8803339A4207D00C23FB62B4
:10EED00004E00C23FB6201E00823FB62FB6A1800DC
:10EEE000BD460DB090BDC046FFFF000090B585B097
:10EEF00000AF78600C0010001900FB1C221C1A7077
:10EF00003B00021C1A80BB1C0A1C1A700823FB1849
:10EF1000082200211800FCF773F90823FB183A00B7
:10EF200012881A80BB1C1B789AB20823FB185A80DF
:10EF30000823FB183A6A5A607A68BB235B00D45AEC
:10EF4000FB1C1A7879687A2013009B009B185B00E1
:10EF5000CB181B181B880822BA1819002000FEF7CE
:10EF6000C1F903001800BD4605B090BD70DF7047C1
:10EF7000C046180071DF7047C046180072DF704746
:10EF8000C046180073DF7047C046180074DF704732
:10EF9000C046180075DF7047C046180076DF70471E
:10EFA000C046180077DF7047C046180078DF70470A
:10EFB000C046180079DF7047C04618007ADF7047F6
:10EFC000C04618007BDF7047C04618007CDF7047E2
:10EFD000C04618007DDF7047C04618007EDF7047CE
:10EFE000C04618007FDF7047C046180080DF7047BA
:10EFF000C046180081DF7047C046180082DF7047A6
:10F00000C046180083DF7047C046180084DF704791
:10F01000C046180085DF7047C046180086DF70477D
:10F02000C046180087DF7047C046180088DF704769
:10F03000C046180089DF7047C04618008EDF704751
:10F04000C04618008ADF7047C04618008BDF704743
:10F05000C04618008CDF7047C04618008DDF70472F
:10F06000C0461800B0DF7047C0461800B1DF7047D7
:10F07000C0461800B2DF7047C046180090DF7047E6
:10F08000C046180091DF7047C046180092DF7047F5
:10F09000C046180093DF7047C046180095DF7047E0
:10F0A000C046180096DF7047C046180097DF7047CB
:10F0B000C046180098DF7047C046180099DF7047B7
:10F0C000C046180094DF7047C0461800A0DF7047A4
:10F0D000C0461800A1DF7047C0461800A2DF704785
:10F0E000C0461800A3DF7047C0461800A4DF704771
:10F0F000C0461800A5DF7047C0461800A6DF70475D
:10F10000C0461800A7DF7047C0461800A8DF704748
:10F11000C0461800A9DF7047C0461800AADF704734
:10F12000C0461800ABDF7047C0461800ACDF704720
:10F13000C046180060DF7047C046180061DF7047A6
:10F14000C046180062DF7047C046180063DF704792
:10F15000C046180064DF7047C046180065DF70477E
:10F16000C046180066DF7047C046180067DF70476A
:10F17000C046180068DF7047C046180069DF704756
:10F18000C046180080B582B000AF02003960BB1DD8
:10F190001A80BB1D1B88DAB23B681A703B680133CA
:10F1A000BA1D1288120A92B2D2B21A700223180043
:10F1B000BD4602B080BDC04680B586B000AFF860E5
:10F1C000B9607A601A00BB1C1A807B681B881233F6
:10F1D0001A00BB1C1B889A4201D90C2340E07B68B3
:10F1E0001B881A00BB689B1811221A707B681B8849
:10F1F00001339AB27B681A807B681B881A00BB684F
:10F200009B1810221A707B681B8801339AB27B68A6
:10F210001A801723FB180F221A701BE07B681B88CB
:10F220001A00BB689B181722BA18127852B2F968F4
:10F230008A5C1A701723FB181B785BB2DBB2013BA8
:10F24000DAB21723FB181A707B681B8801339AB255
:10F250007B681A801723FB181B787F2BDED90023CD
:10F260001800BD4606B080BD80B584B000AFB9605F
:10F270007A6019000F23FB18021C1A700C23FB186C
:10F280000A1C1A807B681B88DA1C0C23FB181B885D
:10F290009A4201D90C2350E07B681B881A00BB6896
:10F2A0009B1802221A707B681B8801339AB27B6814
:10F2B0001A807B681B881A00BB689B181C221A7076
:10F2C0007B681B8801339AB27B681A800F23FB1876
:10F2D0001B78022B10D002DC012B05D024E0032B7D
:10F2E00012D0042B18D01FE07B681B881A00BB6863
:10F2F0009B1800221A7019E07B681B881A00BB68F3
:10F300009B1801221A7011E07B681B881A00BB68E9
:10F310009B1802221A7009E07B681B881A00BB68E0
:10F320009B1803221A7001E0072306E07B681B8804
:10F3300001339AB27B681A8000231800BD4604B0DE
:10F3400080BDC04680B588B000AFF860B960BB1D15
:10F350001A80BB681B8809331A00BB1D1B889A42A0
:10F3600001D90C2352E01423FB181800FFF702FE0A
:10F370000300FB61FB69002B01D0FB6946E0BB6821
:10F380001B881A00FB689B1808221A70BB681B8830
:10F3900001339AB2BB681A80BB681B881A00FB68ED
:10F3A0009B181B221A70BB681B8801339AB2BB687A
:10F3B0001A80BB681B881A00FB6898181423FB1876
:10F3C0000133062219000FF020F9BB681B880633B1
:10F3D0009AB2BB681A801423FB181B78002B07D144
:10F3E000BB681B881A00FB689B1800221A7006E095
:10F3F000BB681B881A00FB689B1801221A70BB6847
:10F400001B8801339AB2BB681A8000231800BD46DE
:10F4100008B080BD80B588B000AFF860B9607A6090
:10F420001A00BB1C1A80FB681B78012B05D1FB68F6
:10F430005B78002B01D1072399E07B681B889A1C1D
:10F44000BB1C1B889A420ED8FB681B78012B0CD181
:10F450007B681B881A00FB685B78D3189A1CBB1C5E
:10F460001B889A4201D90C2381E07B681B88BA1C57
:10F470001288D31A9AB21C23FB18023A1A80162358
:10F48000FB181C22BA1812881A807B681B8802336A
:10F49000BA68D3181622BA1811001800FFF79AFD9F
:10F4A0000300BB61BB69002B01D0BB695FE0FB6857
:10F4B0001B78022B0CD11623FB181B881C22BA18B0
:10F4C00012889A4204D31F23FB1809221A701CE0E9
:10F4D0001F23FB1808221A70FB681B78012B0ED122
:10F4E000FB685B789BB21C22BA1812889A4206D33A
:10F4F000FB685B789AB21623FB181A8005E0162386
:10F50000FB181C22BA1812881A801623FB181B88B5
:10F51000FE2B01D90C232AE07B681B881A00BB68EC
:10F520009B181622BA181288D2B20132D2B21A70BF
:10F530007B681B8801339AB27B681A807B681B88C2
:10F540001A00BB689B181F22BA1812781A707B68C1
:10F550001B8801339AB27B681A807B681A8816234D
:10F56000FB181B88D3189AB27B681A8000231800F6
:10F57000BD4608B080BDC04680B586B000AFF8601B
:10F58000B960BB1D1A80BB681B881A1DBB1D1B8878
:10F590009A4201D90C233BE01223FB181800FFF715
:10F5A00009FD03007B617B69002B01D07B692FE0A3
:10F5B000BB681B881A00FB689B1803221A70BB6883
:10F5C0001B8801339AB2BB681A80BB681B881A007B
:10F5D000FB689B1819221A70BB681B8801339AB20A
:10F5E000BB681A801223FB181A88BB681B88190095
:10F5F000FB685B1819001000FFF7C4FD0300190039
:10F60000BB681A888BB2D3189AB2BB681A800023E1
:10F610001800BD4606B080BD80B584B000AFB960AB
:10F620007A6019000F23FB18021C1A700C23FB18B8
:10F630000A1C1A807B681B88DA1C0C23FB181B88A9
:10F640009A4201D90C2329E07B681B881A00BB6809
:10F650009B1802221A707B681B8801339AB27B6860
:10F660001A807B681B881A00BB689B1801221A70DD
:10F670007B681B8801339AB27B681A807B681B8881
:10F680001A00BB689B180F22BA1812781A707B6890
:10F690001B8801339AB27B681A8000231800BD468C
:10F6A00004B080BD80B584B000AFB9607A60190045
:10F6B0000F23FB18021C1A700C23FB180A1C1A805B
:10F6C0007B681B88DA1C0C23FB181B889A4201D923
:10F6D0000C2329E07B681B881A00BB689B18022258
:10F6E0001A707B681B8801339AB27B681A807B682A
:10F6F0001B881A00BB689B1811221A707B681B8834
:10F7000001339AB27B681A807B681B881A00BB6839
:10F710009B180F22BA1812781A707B681B88013365
:10F720009AB27B681A8000231800BD4604B080BDE1
:10F7300080B584B000AFB9607A6019000F23FB1860
:10F74000021C1A700C23FB180A1C1A807B681B8889
:10F75000DA1C0C23FB181B889A4201D90C2329E0E0
:10F760007B681B881A00BB689B1802221A707B6892
:10F770001B8801339AB27B681A807B681B881A0049
:10F78000BB689B180A221A707B681B8801339AB2E7
:10F790007B681A807B681B881A00BB689B180F2245
:10F7A000BA1812781A707B681B8801339AB27B688A
:10F7B0001A8000231800BD4604B080BD80B58AB011
:10F7C00000AFF860080011007B600B23FB18021CDF
:10F7D0001A700A23FB180A1C1A702323FB18002234
:10F7E0001A702023FB183A6B12881A8000237B6260
:10F7F00081E0FB685A687B6A9B00D3181022BA1814
:10F800001000190004231A000EF0FFFE1723F91848
:10F810001023FB1800221800FFF7A0FC0300FB6177
:10F82000FB69002B01D0FB698EE01723FB181B78C6
:10F830000A22BA1812789A425AD12323FB181B784D
:10F84000002B01D0002200E002221B23FB181A70BB
:10F850003B6B1B881A001723FB181B78D2181B233D
:10F86000FB181B78D2183423FB181B889A4201DD41
:10F870000C2369E02323FB181B7801225340DBB2E1
:10F88000002B18D03B6B1B8801339AB23B6B1A805C
:10F890003B6B1B881A007B689B180B22BA181278E6
:10F8A0001A703B6B1B8801339AB23B6B1A8023237F
:10F8B000FB1801221A703B6B1B881A007B689A1890
:10F8C0001723F9181023FB181800FFF747FC030053
:10F8D000FB61FB69002B01D0FB6935E03B6B1A88AB
:10F8E0001723FB181B789BB2D3189AB23B6B1A8074
:10F8F0007B6A01337B62FB681B881A007B6A9A4231
:10F9000000DD76E72323FB181B78002B1BD03B6B15
:10F910001A882023FB181B88D31A9AB21823FB18C5
:10F92000013A1A801823FB181B88FF2B01D90C23DE
:10F930000AE02023FB181B887A68D3181822BA180B
:10F940001288D2B21A7000231800BD460AB080BDDA
:10F9500080B588B002AFF860080011007B600B230F
:10F96000FB18021C1A700A23FB180A1C1A707A680A
:10F970000B23FB181978F8682423FB181B880193C4
:10F980003B6A009313000222FFF718FF03007B611C
:10F990007B69002B01D07B6916E07A680A23FB188B
:10F9A0001978F8682423FB181B8801933B6A00939D
:10F9B00013001022FFF702FF03007B617B69002B1D
:10F9C00001D07B6900E000231800BD4606B080BD71
:10F9D00080B582B000AF78607B681B88052B0AD9A0
:10F9E0007B681A88C8231B019A4206D97B681B884A
:10F9F000164A934201D0072323E07B685B88052BDE
:10FA00000AD97B685A88C8231B019A4206D97B68A9
:10FA10005B880E4A934201D0072312E07B681B8863
:10FA20000A4A93420CD07B685B88084A934207D00D
:10FA30007B681A887B685B889A4201D9072300E0BB
:10FA400000231800BD4602B080BDC046FFFF000085
:10FA500080B586B000AFF860B9607A601A00BB1C50
:10FA60001A807B681B889A1DBB1C1B889A4201D98F
:10FA70000C234DE0FB681800FFF7AAFF03007B6131
:10FA80007B69002B01D07B6942E07B681B881A00F0
:10FA9000BB689B1805221A707B681B8801339AB2D9
:10FAA0007B681A807B681B881A00BB689B1812222F
:10FAB0001A707B681B8801339AB27B681A80FB68D6
:10FAC0001A887B681B881900BB685B181900100036
:10FAD000FFF758FB030019007B681A888BB2D31814
:10FAE0009AB27B681A80FB685A887B681B88190069
:10FAF000BB685B1819001000FFF744FB03001900F6
:10FB00007B681A888BB2D3189AB27B681A8000235C
:10FB10001800BD4606B080BD80B586B000AFF86065
:10FB2000B9607A601A00BB1C1A80FB689B8802339C
:10FB30007B617B681B881A007B69D3189A1CBB1CED
:10FB40001B889A4201D90C2354E07B69FE2B01D912
:10FB50000C234FE07B681B881A00BB689B187A69EE
:10FB6000D2B20132D2B21A707B681B8801339AB2CA
:10FB70007B681A807B681B881A00BB689B18FF2271
:10FB80001A707B681B8801339AB27B681A80FB6805
:10FB90001A887B681B881900BB685B181900100065
:10FBA000FFF7F0FA030019007B681A888BB2D318AC
:10FBB0009AB27B681A80FB689B88002B19D0FB687F
:10FBC0009B68002B01D1072314E07B681B881A0077
:10FBD000BB689818FB689968FB689B881A000EF050
:10FBE00014FD7B681A88FB689B88D3189AB27B68DF
:10FBF0001A8000231800BD4606B080BD80B588B0CD
:10FC000000AFF860B9607A601A00BB1C1A80FB680C
:10FC10009B6A002B01D1072377E01F23FB180022EA
:10FC20001A7069E0FB68996A1F23FB181A781300A1
:10FC30005B009B189B00CB18BB61BB699B880233A0
:10FC40007B617B69FE2B01D90C235EE07B681B88FE
:10FC50001A00BB689B187A69D2B20132D2B21A700C
:10FC60007B681B8801339AB27B681A807B681B888B
:10FC70001A00BB689B1816221A707B681B88013318
:10FC80009AB27B681A80BB691A887B681B88190046
:10FC9000BB685B1819001000FFF774FA0300190025
:10FCA0007B681A888BB2D3189AB27B681A80BB69BA
:10FCB0009B88002B19D0BB699B68002B01D10723BF
:10FCC00023E07B681B881A00BB689818BB69996899
:10FCD000BB699B881A000EF098FC7B681A88BB6988
:10FCE0009B88D3189AB27B681A801F23FB181A7856
:10FCF0001F23FB1801321A70FB682C229B5C1F2209
:10FD0000BA1812789A428DD300231800BD4608B065
:10FD100080BDC04680B588B002AFF860B9607A6037
:10FD200000237B611223FB187A6812881A807B6893
:10FD300000221A80FB685B6B002B10D0FB685B6BAA
:10FD400018781223FB181B887A68B968FFF7AAFC99
:10FD500003007B617B69002B01D07B6919E1FB68A3
:10FD60001B6B002B0FD0FB68186B1223FB181B8832
:10FD70007A68B968FFF720FA03007B617B69002B82
:10FD800001D07B6905E1FB682E229B5C002B10D023
:10FD9000FB682E22985C1223FB181B887A68B968CE
:10FDA000FFF762FA03007B617B69002B01D07B695E
:10FDB000EFE0FB682D229B5C002B0ED01223FB187A
:10FDC0001A887968BB681800FFF7BCFA03007B61EA
:10FDD0007B69002B01D07B69DBE0FB689B78002B03
:10FDE0000ED01223FB181A887968BB681800FFF739
:10FDF000C3FB03007B617B69002B01D07B69C8E0FA
:10FE0000FB68DB78002B10D0FB68DB7858B212233C
:10FE1000FB181B887A68B968FFF7FEFB03007B615B
:10FE20007B69002B01D07B69B3E0FB685B68002B2A
:10FE300011D0FB685B68002018561223FB181B8842
:10FE40007A68B968FFF774FC03007B617B69002B5B
:10FE500001D07B699DE0FB681B89002B15D0FB68F6
:10FE600008331800BA681223FB181B8801937B68BB
:10FE70000093130006220221FFF76AFD03007B6155
:10FE80007B69002B01D07B6983E0FB681B8A002B18
:10FE900015D0FB6810331800BA681223FB181B88B2
:10FEA00001937B680093130007220321FFF750FDA5
:10FEB00003007B617B69002B01D07B6969E0FB68F3
:10FEC0001B8B002B15D0FB6818331800BA6812235F
:10FED000FB181B8801937B680093130015221421E3
:10FEE000FFF736FD03007B617B69002B01D07B6946
:10FEF0004FE0FB681B6A002B0FD0FB68186A1223C7
:10FF0000FB181B887A68B968FFF7A2FD03007B61C4
:10FF10007B69002B01D07B693BE0FB685B6A002BAF
:10FF20000FD0FB68586A1223FB181B887A68B968DF
:10FF3000FFF7F2FD03007B617B69002B01D07B6939
:10FF400027E0FB682C229B5C002B0ED01223FB18B1
:10FF50001B887A68B968F868FFF750FE03007B6178
:10FF60007B69002B01D07B6913E0FB681B78002BB9
:10FF70000ED01223FB181B887A68B968F868FFF75F
:10FF800049FA03007B617B69002B01D07B6900E0AB
:10FF90007B691800BD4606B080BDC04680B582B002
:10FFA00000AF78607B68DB781A000423134001D12E
:10FFB000072300E000231800BD4602B080BDC04604
:10FFC00080B582B000AF78607B68DB78002B01D011
:10FFD000072300E000231800BD4602B080BDC046E4
:10FFE00080B596B000AF786039604A23FB181F22B5
:10FFF0001A804823FB181F221A807B68002B1DD013
:020000022000DC
:100000007B681800FFF7CAFF0300FB64FB6C002B42
:1000100001D0FB6C4CE04A23FA182823F9187B68BE
:100020001800FFF777FE0300FB64FB6C002B01D088
:10003000FB6C3DE02823FB187B6505E000237B6516
:100040004A23FB1800221A803B68002B1DD03B6816
:100050001800FFF7B5FF0300FB64FB6C002B01D019
:10006000FB6C25E04823FA180823F9183B681800B0
:10007000FFF750FE0300FB64FB6C002B01D0FB6C10
:1000800016E00823FB183B6505E000233B65482389
:10009000FB1800221A804A23FB181B88D9B2482378
:1000A000FB181B88DBB23A6D786DFEF767FF030023
:1000B0001800BD4616B080BD70DF7047C0461800FE
:1000C00071DF7047C046180072DF7047C0461800E5
:1000D00073DF7047C046180074DF7047C0461800D1
:1000E00075DF7047C046180076DF7047C0461800BD
:1000F00077DF7047C046180078DF7047C0461800A9
:1001000079DF7047C04618007ADF7047C046180094
:100110007BDF7047C04618007CDF7047C046180080
:100120007DDF7047C04618007EDF7047C04618006C
:100130007FDF7047C046180080DF7047C046180058
:1001400081DF7047C046180082DF7047C046180044
:1001500083DF7047C046180084DF7047C046180030
:1001600085DF7047C046180086DF7047C04618001C
:1001700087DF7047C046180088DF7047C046180008
:1001800089DF7047C04618008EDF7047C0461800F0
:100190008ADF7047C04618008BDF7047C0461800E2
:1001A0008CDF7047C04618008DDF7047C0461800CE
:1001B000B0DF7047C0461800B1DF7047C046180076
:1001C000B2DF7047C046180090DF7047C046180085
:1001D00091DF7047C046180092DF7047C046180094
:1001E00093DF7047C046180095DF7047C04618007F
:1001F00096DF7047C046180097DF7047C04618006A
:1002000098DF7047C046180099DF7047C046180055
:1002100094DF7047C0461800A0DF7047C046180042
:10022000A1DF7047C0461800A2DF7047C046180023
:10023000A3DF7047C0461800A4DF7047C04618000F
:10024000A5DF7047C0461800A6DF7047C0461800FB
:10025000A7DF7047C0461800A8DF7047C0461800E7
:10026000A9DF7047C0461800AADF7047C0461800D3
:10027000ABDF7047C0461800ACDF7047C0461800BF
:1002800060DF7047C046180061DF7047C046180045
:1002900062DF7047C046180063DF7047C046180031
:1002A00064DF7047C046180065DF7047C04618001D
:1002B00066DF7047C046180067DF7047C046180009
:1002C00068DF7047C046180069DF7047C0461800F5
:1002D00080B582B000AF78607B681B781AB27B680B
:1002E00001331B781B021BB213431BB29BB21800D5
:1002F000BD4602B080BDC04690B585B000AF786005
:100300000E23FC187B681800FFF7E2FF0300238030
:100310000E23FB181B88012213405A1E9341DBB2A7
:100320001800BD4605B090BD80B582B000AF7860C2
:100330007B685A88084B1B889A4207D37B685A8887
:10034000054B5B889A4201D8012300E00023180086
:10035000BD4602B080BDC046A426002080B586B050
:1003600000AF7860294B1B88294A93424AD0294B19
:100370001B780133DAB2274B1A70274B1A7B254BB7
:100380001B789A4215D3214B1B88244A1100180070
:10039000FFF7A6FE03007B617B69002B32D01E4B6A
:1003A0009B69002B2ED01C4B9B697A6910009847E3
:1003B00028E0184B00221A70174B1B7C002B13D01F
:1003C000124B1B883B211800FFF78EFE03003B6198
:1003D0003B69002B08D0104B9B69002B04D00E4BBF
:1003E0009B693A69100098470B4B5B69002B09D059
:1003F0000C23FB1800221A70074B5B690C22BA18F9
:1004000010009847C046BD4606B080BDAE2600200D
:10041000FFFF0000AC26002088260020A426002034
:1004200090B585B000AF78601F4B7A6813CA13C3CC
:1004300013CA13C312681A601C4B00221A707B681F
:100440001B68002B13D07B681B68194A1000190029
:1004500008231A000EF0D9F8154B1800FFF754FEC8
:100460000300FB60FB68002B0CD0FB6818E0104B0E
:100470001800FFF74DFE0300FB60FB68002B01D066
:10048000FB680DE00B4B012252421A800A4B0022FE
:100490001A700A4A0A4B002118000AF071FC030086
:1004A0001800BD4605B090BD88260020D826002043
:1004B000A4260020AE260020AC2600205D0302000A
:1004C0004CE6020080B500AF034B18000AF0E2FCD6
:1004D00003001800BD4680BDB826002080B584B05A
:1004E00000AF274B1800FFF71FFF03001A0001237E
:1004F0005340DBB2002B30D0224B1B78002B0CD0AA
:10050000214B5B69002B34D03B1D00221A701E4B1F
:100510005B693A1D100098472BE01C4B1B78002BA1
:1005200003D1194B5B68FB6002E0174B9B68FB60D3
:10053000174BF968002218000AF072FC0300BB6038
:10054000BB68002B15D0104B9B69002B11D00E4BB4
:100550009B69BA68100098470BE00B4B5B69002B56
:1005600007D03B0001221A70074B5B693A0010006C
:100570009847044B00221A70C046BD4604B080BDA7
:10058000B0260020D826002088260020AC26002097
:10059000B826002080B582B000AF78607B689A886A
:1005A000094B1A80094A7B68183303CB03C2084BF6
:1005B00000221A70074BDB89002B01D1FFF78EFF59
:1005C000C046BD4602B080BDAE260020B026002049
:1005D000AC2600208826002080B584B000AF78606B
:1005E0000E4B012252421A800D4B00221A700D4B05
:1005F00018000AF04FFC0300FB60FB68002B08D0DA
:10060000094B9B69002B04D0074B9B69FA681000CB
:100610009847C046BD4604B080BDC046AE26002007
:10062000AC260020B82600208826002080B584B0A3
:1006300000AF78607B680633FB60FB681A88144B58
:10064000DB899A421FD1FB685B89022B1BD1FB68B7
:100650000C331800FFF750FE031E02D0FFF73EFFD9
:1006600011E00C4B18000AF015FC0300BB60BB68DE
:10067000002B08D0064B9B69002B04D0044B9B69D0
:10068000BA6810009847C046BD4604B080BDC04659
:1006900088260020B826002080B582B000AF7860A0
:1006A000054A7B68083303CB03C2FFF717FFC04638
:1006B000BD4602B080BDC046B026002080B582B0E5
:1006C00000AF78607B681B88112B0DD002DC102BEB
:1006D00005D018E0122B11D0502B0AD013E07B6804
:1006E0001800FFF757FF0EE07B681800FFF774FF54
:1006F00009E07B681800FFF799FF04E07B681800A9
:10070000FFF7CAFFC046C046BD4602B080BDC04626
:1007100080B584B000AF7860204A7B681000190073
:1007200008231A000DF071FF1C4B1800FFF7ECFCBA
:100730000300FB60FB68002B2AD1194B1800FFF760
:10074000F3FD03001A0001235340DBB2002B0FD04E
:10075000144B01221A70144B1B88104A1100180008
:10076000FFF7BEFC0300FB60104B01221A700FE084
:100770000F4B5B69002B09D00823FB1801221A706C
:100780000B4B5B690822BA18100098470023FB60E6
:10079000FB681800BD4604B080BDC046A4260020FA
:1007A000B0260020D8260020AE260020AC2600204F
:1007B0008826002070DF7047C046180071DF704740
:1007C000C046180072DF7047C046180073DF7047DC
:1007D000C046180074DF7047C046180075DF7047C8
:1007E000C046180076DF7047C046180077DF7047B4
:1007F000C046180078DF7047C046180079DF7047A0
:10080000C04618007ADF7047C04618007BDF70478B
:10081000C04618007CDF7047C04618007DDF704777
:10082000C04618007EDF7047C04618007FDF704763
:10083000C046180080DF7047C046180081DF70474F
:10084000C046180082DF7047C046180083DF70473B
:10085000C046180084DF7047C046180085DF704727
:10086000C046180086DF7047C046180087DF704713
:10087000C046180088DF7047C046180089DF7047FF
:10088000C04618008EDF7047C04618008ADF7047E8
:10089000C04618008BDF7047C04618008CDF7047D9
:1008A000C04618008DDF7047C0461800B0DF7047A3
:1008B000C0461800B1DF7047C0461800B2DF70476D
:1008C000C046180090DF7047C046180091DF70479F
:1008D000C046180092DF7047C046180093DF70478B
:1008E000C046180095DF7047C046180096DF704775
:1008F000C046180097DF7047C046180098DF704761
:10090000C046180099DF7047C046180094DF704752
:10091000C0461800A0DF7047C0461800A1DF70472E
:10092000C0461800A2DF7047C0461800A3DF70471A
:10093000C0461800A4DF7047C0461800A5DF704706
:10094000C0461800A6DF7047C0461800A7DF7047F2
:10095000C0461800A8DF7047C0461800A9DF7047DE
:10096000C0461800AADF7047C0461800ABDF7047CA
:10097000C0461800ACDF7047C046180060DF704703
:10098000C046180061DF7047C046180062DF70473C
:10099000C046180063DF7047C046180064DF704728
:1009A000C046180065DF7047C046180066DF704714
:1009B000C046180067DF7047C046180068DF704700
:1009C000C046180069DF7047C046180080B584B083
:1009D00000AF786039600F23FB1800221A700F23D4
:1009E000FB181B780F22BA18591C11701A007B686B
:1009F0009B183A6812781A700F23FB181B780F2285
:100A0000BA18591C11701A007B689B183A68527802
:100A10001A700F23FB181B78023B5A425341DBB27A
:100A2000BB60BB68002B02D100200AF0E7FD0F235A
:100A3000FB181B781800BD4604B080BD80B582B09D
:100A400000AF786039603B6818000DF0E7FD0300E7
:100A50009AB27B681A807B683A685A60C046BD4685
:100A600002B080BD80B582B000AF02003960FB1DCE
:100A70001A703B681A780F218A431A703B681A78FB
:100A80000F210A401A70FB1D1B78052B65D89A00B0
:100A9000344BD3181B689F463B681A780F218A4352
:100AA0001A703B681A780F210A401A7054E03B68AC
:100AB0001A780F218A43111C01220A431A703B68DD
:100AC0001A780F210A40111C10220A431A7043E0C1
